{
  "contractName": "SmartCar",
  "abi": [
    {
      "constant": true,
      "inputs": [
        {
          "name": "",
          "type": "uint256"
        }
      ],
      "name": "owners",
      "outputs": [
        {
          "name": "",
          "type": "address"
        }
      ],
      "payable": false,
      "stateMutability": "view",
      "type": "function"
    },
    {
      "constant": true,
      "inputs": [],
      "name": "carValue",
      "outputs": [
        {
          "name": "",
          "type": "uint256"
        }
      ],
      "payable": false,
      "stateMutability": "view",
      "type": "function"
    },
    {
      "constant": true,
      "inputs": [],
      "name": "carSigner",
      "outputs": [
        {
          "name": "",
          "type": "address"
        }
      ],
      "payable": false,
      "stateMutability": "view",
      "type": "function"
    },
    {
      "constant": true,
      "inputs": [
        {
          "name": "",
          "type": "address"
        }
      ],
      "name": "carShares",
      "outputs": [
        {
          "name": "",
          "type": "uint256"
        }
      ],
      "payable": false,
      "stateMutability": "view",
      "type": "function"
    },
    {
      "constant": false,
      "inputs": [],
      "name": "triggerDistributeEarnings",
      "outputs": [
        {
          "name": "",
          "type": "address"
        }
      ],
      "payable": false,
      "stateMutability": "nonpayable",
      "type": "function"
    },
    {
      "constant": false,
      "inputs": [
        {
          "name": "",
          "type": "address"
        }
      ],
      "name": "rentCarDaily",
      "outputs": [
        {
          "name": "",
          "type": "uint256"
        }
      ],
      "payable": true,
      "stateMutability": "payable",
      "type": "function"
    },
    {
      "constant": true,
      "inputs": [],
      "name": "licensePlate",
      "outputs": [
        {
          "name": "",
          "type": "bytes32"
        }
      ],
      "payable": false,
      "stateMutability": "view",
      "type": "function"
    },
    {
      "constant": true,
      "inputs": [],
      "name": "balanceToDistribute",
      "outputs": [
        {
          "name": "",
          "type": "uint256"
        }
      ],
      "payable": false,
      "stateMutability": "view",
      "type": "function"
    },
    {
      "constant": false,
      "inputs": [],
      "name": "endRentCarDaily",
      "outputs": [
        {
          "name": "",
          "type": "uint256"
        }
      ],
      "payable": false,
      "stateMutability": "nonpayable",
      "type": "function"
    },
    {
      "constant": true,
      "inputs": [
        {
          "name": "_user",
          "type": "address"
        }
      ],
      "name": "activateCar",
      "outputs": [
        {
          "name": "",
          "type": "bool"
        }
      ],
      "payable": false,
      "stateMutability": "view",
      "type": "function"
    },
    {
      "constant": true,
      "inputs": [
        {
          "name": "",
          "type": "address"
        }
      ],
      "name": "ownersBalance",
      "outputs": [
        {
          "name": "",
          "type": "uint256"
        }
      ],
      "payable": false,
      "stateMutability": "view",
      "type": "function"
    },
    {
      "constant": false,
      "inputs": [
        {
          "name": "",
          "type": "address"
        }
      ],
      "name": "withdrawEarnings",
      "outputs": [
        {
          "name": "",
          "type": "uint256"
        }
      ],
      "payable": false,
      "stateMutability": "nonpayable",
      "type": "function"
    },
    {
      "constant": false,
      "inputs": [],
      "name": "triggerTransferEthForStipends",
      "outputs": [],
      "payable": false,
      "stateMutability": "nonpayable",
      "type": "function"
    },
    {
      "constant": false,
      "inputs": [
        {
          "name": "_owners",
          "type": "address[]"
        }
      ],
      "name": "setOwners",
      "outputs": [
        {
          "name": "",
          "type": "uint256"
        }
      ],
      "payable": false,
      "stateMutability": "nonpayable",
      "type": "function"
    },
    {
      "constant": false,
      "inputs": [
        {
          "name": "_licensePlate",
          "type": "bytes32"
        },
        {
          "name": "_carValue",
          "type": "uint256"
        }
      ],
      "name": "setOwners",
      "outputs": [],
      "payable": false,
      "stateMutability": "nonpayable",
      "type": "constructor"
    },
    {
      "inputs": [
        {
          "name": "_carSigner",
          "type": "address",
          "indexed": false
        },
        {
          "name": "_amount",
          "type": "uint256",
          "indexed": false
        },
        {
          "indexed": true,
          "name": "_eventDate",
          "type": "uint256"
        }
      ],
      "payable": false,
      "stateMutability": "nonpayable",
      "type": "event",
      "anonymous": false,
      "name": "E_TransferEthForStipends"
    },
    {
      "anonymous": false,
      "inputs": [
        {
          "indexed": true,
          "name": "_currentDriverAddress",
          "type": "address"
        },
        {
          "indexed": false,
          "name": "_rentValue",
          "type": "uint256"
        },
        {
          "indexed": false,
          "name": "_rentalStart",
          "type": "uint256"
        },
        {
          "indexed": false,
          "name": "_rentalEnd",
          "type": "uint256"
        }
      ],
      "name": "E_RentCarDaily",
      "type": "event"
    },
    {
      "anonymous": false,
      "inputs": [
        {
          "indexed": true,
          "name": "_currentDriverAddress",
          "type": "address"
        },
        {
          "indexed": false,
          "name": "_rentalEnd",
          "type": "uint256"
        },
        {
          "indexed": false,
          "name": "_endedWithinPeriod",
          "type": "bool"
        },
        {
          "indexed": false,
          "name": "_rentalEnd",
          "type": "uint256"
        }
      ],
      "name": "E_EndRentCarDaily",
      "type": "event"
    },
    {
      "anonymous": false,
      "inputs": [
        {
          "indexed": true,
          "name": "_currentDriverAddress",
          "type": "address"
        },
        {
          "indexed": false,
          "name": "_rentalEnd",
          "type": "uint256"
        },
        {
          "indexed": false,
          "name": "_endedWithinPeriod",
          "type": "bool"
        }
      ],
      "name": "E_EndRentCarDaily",
      "type": "event"
    }
  ],
  "bytecode": "0x6060604052600060085560006009556000600a60006101000a81548160ff021916908315150217905550341561003457600080fd5b6040516040806112e8833981016040528080519060200190919080519060200190919050506000602060ff1611801561006d5750600081115b151561007857600080fd5b336000806101000a81548173ffffffffffffffffffffffffffffffffffffffff021916908373ffffffffffffffffffffffffffffffffffffffff1602179055508060018190555081600281600019169055506064600660003073ffffffffffffffffffffffffffffffffffffffff1673ffffffffffffffffffffffffffffffffffffffff168152602001908152602001600020819055506000600760016101000a81548160ff0219169083600381111561012e57fe5b02179055506000600760006101000a81548160ff0219169083600681111561015257fe5b02179055506064600b600001819055505050611175806101736000396000f3006060604052600436106100d0576000357c0100000000000000000000000000000000000000000000000000000000900463ffffffff168063025e7c27146100d55780630749afec1461013857806333597869146101615780633dcdcc73146101b65780634cc9e1ac1461020357806363766d09146102185780637c7077a6146102225780638001d45514610253578063900b27111461027c5780639d281aba14610291578063a4fcc57a146102e2578063b73c6ce91461032f578063dfeccdd014610344578063fa4d369814610359575b600080fd5b34156100e057600080fd5b6100f660048080359060200190919050506103b3565b604051808273ffffffffffffffffffffffffffffffffffffffff1673ffffffffffffffffffffffffffffffffffffffff16815260200191505060405180910390f35b341561014357600080fd5b61014b6103f2565b6040518082815260200191505060405180910390f35b341561016c57600080fd5b6101746103f8565b604051808273ffffffffffffffffffffffffffffffffffffffff1673ffffffffffffffffffffffffffffffffffffffff16815260200191505060405180910390f35b34156101c157600080fd5b6101ed600480803573ffffffffffffffffffffffffffffffffffffffff1690602001909190505061041d565b6040518082815260200191505060405180910390f35b341561020e57600080fd5b610216610435565b005b61022061051c565b005b341561022d57600080fd5b6102356106ce565b60405180826000191660001916815260200191505060405180910390f35b341561025e57600080fd5b6102666106d4565b6040518082815260200191505060405180910390f35b341561028757600080fd5b61028f6106da565b005b341561029c57600080fd5b6102c8600480803573ffffffffffffffffffffffffffffffffffffffff16906020019091905050610948565b604051808215151515815260200191505060405180910390f35b34156102ed57600080fd5b610319600480803573ffffffffffffffffffffffffffffffffffffffff169060200190919050506109ca565b6040518082815260200191505060405180910390f35b341561033a57600080fd5b6103426109e2565b005b341561034f57600080fd5b610357610b89565b005b341561036457600080fd5b6103b1600480803590602001908201803590602001908080602002602001604051908101604052809392919081815260200183836020028082843782019150505050505091905050610c09565b005b6003818154811015156103c257fe5b90600052602060002090016000915054906101000a900473ffffffffffffffffffffffffffffffffffffffff1681565b60015481565b6000809054906101000a900473ffffffffffffffffffffffffffffffffffffffff1681565b60066020528060005260406000206000915090505481565b600080600a60009054906101000a900460ff16151561045357600080fd5b600060055411151561046457600080fd5b60009150600090505b6003805490508160ff161015610504573373ffffffffffffffffffffffffffffffffffffffff1660038260ff168154811015156104a657fe5b906000526020600020900160009054906101000a900473ffffffffffffffffffffffffffffffffffffffff1673ffffffffffffffffffffffffffffffffffffffff1614156104f75760019150610504565b808060010191505061046d565b81151561051057600080fd5b610518610e01565b5050565b600a60009054906101000a900460ff16151561053757600080fd5b600a60009054906101000a900460ff16151561055257600080fd5b6000600381111561055f57fe5b600760019054906101000a900460ff16600381111561057a57fe5b14151561058657600080fd5b670de0b6b3a76400003414151561059c57600080fd5b33600760026101000a81548173ffffffffffffffffffffffffffffffffffffffff021916908373ffffffffffffffffffffffffffffffffffffffff1602179055506001600760016101000a81548160ff021916908360038111156105fc57fe5b02179055506005600760006101000a81548160ff0219169083600681111561062057fe5b02179055504260088190555062015180420160098190555034600560008282540192505081905550600760029054906101000a900473ffffffffffffffffffffffffffffffffffffffff1673ffffffffffffffffffffffffffffffffffffffff167f142c58fcef03e81eca098b1fada4ac83477b6383a146c2b09d71bcb7b556fff33460085460095460405180848152602001838152602001828152602001935050505060405180910390a2565b60025481565b60055481565b6000600a60009054906101000a900460ff1615156106f757600080fd5b6000809054906101000a900473ffffffffffffffffffffffffffffffffffffffff1673ffffffffffffffffffffffffffffffffffffffff163373ffffffffffffffffffffffffffffffffffffffff16148015610754575060095442115b806107ac5750600760029054906101000a900473ffffffffffffffffffffffffffffffffffffffff1673ffffffffffffffffffffffffffffffffffffffff163373ffffffffffffffffffffffffffffffffffffffff16145b15156107b757600080fd5b600160038111156107c457fe5b600760019054906101000a900460ff1660038111156107df57fe5b1415156107eb57600080fd5b600560068111156107f857fe5b600760009054906101000a900460ff16600681111561081357fe5b14151561081f57600080fd5b6009544211159050600760029054906101000a900473ffffffffffffffffffffffffffffffffffffffff1673ffffffffffffffffffffffffffffffffffffffff167fd893ac866e96f599f1c3491bd5293b75e3738f2a7c77c58e5a929ab93393a9a2428360405180838152602001821515151581526020019250505060405180910390a26000600760026101000a81548173ffffffffffffffffffffffffffffffffffffffff021916908373ffffffffffffffffffffffffffffffffffffffff1602179055506000600760016101000a81548160ff0219169083600381111561090457fe5b02179055506000600760006101000a81548160ff0219169083600681111561092857fe5b021790555060006008819055506000600981905550610945610e01565b50565b6000600a60009054906101000a900460ff16151561096557600080fd5b600760029054906101000a900473ffffffffffffffffffffffffffffffffffffffff1673ffffffffffffffffffffffffffffffffffffffff168273ffffffffffffffffffffffffffffffffffffffff161415156109c157600080fd5b60019050919050565b60046020528060005260406000206000915090505481565b6000806000600a60009054906101000a900460ff161515610a0257600080fd5b60009250600091505b6003805490508260ff161015610aa2573373ffffffffffffffffffffffffffffffffffffffff1660038360ff16815481101515610a4457fe5b906000526020600020900160009054906101000a900473ffffffffffffffffffffffffffffffffffffffff1673ffffffffffffffffffffffffffffffffffffffff161415610a955760019250610aa2565b8180600101925050610a0b565b821515610aae57600080fd5b600460003373ffffffffffffffffffffffffffffffffffffffff1673ffffffffffffffffffffffffffffffffffffffff168152602001908152602001600020549050600081111515610aff57600080fd5b6000600460003373ffffffffffffffffffffffffffffffffffffffff1673ffffffffffffffffffffffffffffffffffffffff168152602001908152602001600020819055503373ffffffffffffffffffffffffffffffffffffffff166108fc829081150290604051600060405180830381858888f193505050501515610b8457600080fd5b505050565b600a60009054906101000a900460ff161515610ba457600080fd5b6000809054906101000a900473ffffffffffffffffffffffffffffffffffffffff1673ffffffffffffffffffffffffffffffffffffffff163373ffffffffffffffffffffffffffffffffffffffff16141515610bff57600080fd5b610c07610efc565b565b6000806000809054906101000a900473ffffffffffffffffffffffffffffffffffffffff1673ffffffffffffffffffffffffffffffffffffffff163373ffffffffffffffffffffffffffffffffffffffff16141515610c6757600080fd5b6064835111151515610c7857600080fd5b6000600380549050141515610c8c57600080fd5b8260039080519060200190610ca292919061107c565b50600380549050600660003073ffffffffffffffffffffffffffffffffffffffff1673ffffffffffffffffffffffffffffffffffffffff16815260200190815260200160002054811515610cf257fe5b0491505b6003805490508160ff161015610de157816006600060038460ff16815481101515610d1d57fe5b906000526020600020900160009054906101000a900473ffffffffffffffffffffffffffffffffffffffff1673ffffffffffffffffffffffffffffffffffffffff1673ffffffffffffffffffffffffffffffffffffffff1681526020019081526020016000208190555081600660003073ffffffffffffffffffffffffffffffffffffffff1673ffffffffffffffffffffffffffffffffffffffff168152602001908152602001600020600082825403925050819055508080600101915050610cf6565b6001600a60006101000a81548160ff021916908315150217905550505050565b600080600a60009054906101000a900460ff161515610e1f57600080fd5b610e27610efc565b600380549050600554811515610e3957fe5b049150600090505b6003805490508160ff161015610ef857816004600060038460ff16815481101515610e6857fe5b906000526020600020900160009054906101000a900473ffffffffffffffffffffffffffffffffffffffff1673ffffffffffffffffffffffffffffffffffffffff1673ffffffffffffffffffffffffffffffffffffffff16815260200190815260200160002060008282540192505081905550816005600082825403925050819055508080600101915050610e41565b5050565b6000600a60009054906101000a900460ff161515610f1957600080fd5b67016345785d8a00009050806000809054906101000a900473ffffffffffffffffffffffffffffffffffffffff1673ffffffffffffffffffffffffffffffffffffffff1631101515610f6a57600080fd5b8060055410151515610f7b57600080fd5b806005600082825403925050819055506000809054906101000a900473ffffffffffffffffffffffffffffffffffffffff1673ffffffffffffffffffffffffffffffffffffffff166108fc829081150290604051600060405180830381858888f193505050501515610fec57600080fd5b427fc63f325d8ca708349ad3d9309cde13937adaa975e4472f68c27ff25ad55ab0546000809054906101000a900473ffffffffffffffffffffffffffffffffffffffff1683604051808373ffffffffffffffffffffffffffffffffffffffff1673ffffffffffffffffffffffffffffffffffffffff1681526020018281526020019250505060405180910390a250565b8280548282559060005260206000209081019282156110f5579160200282015b828111156110f45782518260006101000a81548173ffffffffffffffffffffffffffffffffffffffff021916908373ffffffffffffffffffffffffffffffffffffffff1602179055509160200191906001019061109c565b5b5090506111029190611106565b5090565b61114691905b8082111561114257600081816101000a81549073ffffffffffffffffffffffffffffffffffffffff02191690555060010161110c565b5090565b905600a165627a7a7230582030d047ae428b436e6d72b3d9e3cf902f492a13334bfb8ef43dc81530efbb30480029",
  "source": "pragma solidity ^0.4.4;\n\ncontract SmartCar {\n  //The address of the car, which will sign transactions made by this contract.\n  address public carSigner;\n\n  // Value of the car, in wei\n  uint public carValue;\n\n  bytes32 public licensePlate;\n\n  // Owners of the car, they will be the ones that receive payments from the car.\n  // We assume each owner owns the car equally.\n  address[] public owners;\n  uint constant MAX_OWNERS = 100;\n\n  //Earning from driving will be distributed to each owner for them to withdraw\n  mapping (address => uint) public ownersBalance;\n  uint public balanceToDistribute;\n\n  uint constant INITIAL_CAR_SHARES = 100;\n  mapping (address => uint) public carShares;\n\n  DriverEntity currentDriverEntity;\n  DriveStatus currentDriveStatus;\n\n  //To keep track of who's currently using the car\n  //If the owners are driving it, it will be their address.\n  //If someone rented it, it will be the renter address, so he can be held accountable.\n  //In this case, we could even ask for a warranty which will be sent back if the car is ok.\n  address currentDriverAddress;\n  uint currentDriveStartTime = 0;\n  uint currentDriveRequiredEndTime = 0;\n\n  //Rates\n  uint constant RATE_DAILYRENTAL = 1 ether; //1 ETH\n\n  enum DriverEntity {\n    None,\n    Owner,\n    Autopilot,\n    Cab,\n    Uber,\n    DailyRental,\n    Other\n  }\n\n  enum DriveStatus {\n    Idle,\n    Driving,\n    TurnedOff,\n    Unavailable\n  }\n\n  bool carIsReady = false;\n\n  // Somehow, the car should be able to communicate its \"internals\" to the contract.\n  // These internals are the ones relevant to the functioning of the contract, such as it's fuel.\n  // We don't care about oil or coolant for example, at this point at least.\n  struct CarInternals {\n    uint fuel; //Measured in percentage\n  }\n\n  CarInternals carInternals;\n\n  modifier onlyIfReady {\n        require(carIsReady);\n        _;\n    }\n\n  event E_TransferEthForStipends(address _carSigner,uint _amount, uint indexed _eventDate);\n  event E_RentCarDaily(address indexed _currentDriverAddress,uint _rentValue,uint _rentalStart,uint _rentalEnd);\n  event E_EndRentCarDaily(address indexed _currentDriverAddress,uint _rentalEnd, bool _endedWithinPeriod);\n\n\n  ////////////////////////////////////\n  // Functions\n  ////////////////////////////////////\n\n  function SmartCar(bytes32 _licensePlate, uint _carValue) public {\n    require(_licensePlate.length >0 && _carValue > 0);\n    carSigner = msg.sender;\n    carValue = _carValue;\n    licensePlate = _licensePlate;\n    carShares[address(this)] = INITIAL_CAR_SHARES;\n\n    currentDriveStatus = DriveStatus.Idle;\n    currentDriverEntity = DriverEntity.None;\n\n    carInternals.fuel = 100;\n  }\n\n  //We will assume, for the time being, that the owners are set by the carSigner automatically,\n  //and that they can't be changed.\n  //We are basically doing the purchase of the car, off-chain.\n  //We also assume that each person payed the same amount for the car, thus owning equal shares.\n  function setOwners(address[] _owners) public {\n    require(msg.sender == carSigner);\n    require(_owners.length <= MAX_OWNERS);\n\n    //Can only set owners once.\n    require(owners.length == 0);\n\n    owners = _owners;\n\n    //We take the total carShares the \"car\" owns and we distribute them equally among new owners\n    //If the shares are not properly divisible (I.E: 100 shares / 3 owners) the remaining shares stay with the car\n    uint sharesToDistribute = carShares[address(this)]/owners.length;\n\n    for (uint8 i; i<owners.length;i++){\n      carShares[owners[i]] = sharesToDistribute;\n      carShares[address(this)] -= sharesToDistribute;\n    }\n\n    carIsReady = true;\n  }\n\n  /////////////////////////////////////\n  // Functions called by a third party\n  /////////////////////////////////////\n\n  // Anyone can rent the car for the day, as long as it is idle.\n  // In real life, the workflow could be as follows:\n  // 1. User calls this function from his mobile device or browser web3 dapp, sending the correct amount of eth\n  // 2. The system generates a PIN number (we are just using his address as PIN right now)\n  // 3. User gets on the car and unlocks it using the pin.\n\n  // As it stands, we assume that the car, somehow recognizes that the user\n  // that paid is actually in the car. We added a activateCar function that\n  // acts as if it was a PIN.\n\n  function rentCarDaily() public onlyIfReady payable{\n    //No one must be using the car\n    require (carIsReady);\n    require (currentDriveStatus == DriveStatus.Idle);\n    require (msg.value == RATE_DAILYRENTAL);\n\n    currentDriverAddress = msg.sender;\n    currentDriveStatus = DriveStatus.Driving;\n    currentDriverEntity = DriverEntity.DailyRental;\n    currentDriveStartTime = now;\n    currentDriveRequiredEndTime = now + 1 days;\n\n    balanceToDistribute += msg.value; // ADD SafeMath Library\n\n    E_RentCarDaily(currentDriverAddress,msg.value, currentDriveStartTime,currentDriveRequiredEndTime);\n\n    //TBD: What happens if the car is returned after the currentDriveRequiredEndTime has ended?\n    // Charge more? Add driver to blacklist?\n    //It should just stop working when the time has finished? We could have the car check every now and then.\n\n  }\n\n  // For the car to start it will ask the user for his PIN. Instead of generating a PIN\n  // we are using his address as PIN, making sure they match.\n  // This would be done in the car interface, of course it's a terrible user experience to as for an\n  // address instead of a 4 digit PIN, but it will do for now.\n  // We are not using this internally.\n\n  function activateCar(address _user) public view onlyIfReady returns(bool){\n    require (_user == currentDriverAddress);\n    return true;\n  }\n\n  // This should be called by the end of the rental period.\n  // Driver would tell the car to end the rental and the car would execute this function.\n  // Also, the car can call it if the rental period ended. (This would be scheduled car-side)\n  // Here, we distribute earnings and do the necessary cleanup such as\n  // ussuing fuel recharge if needed.\n  function endRentCarDaily () public onlyIfReady {\n    // The person renting the car can end the rental anytime.\n    // The carSigner can end the rental only after the renting period has ended\n    // in order to \"claim the car back\".\n    require ((msg.sender == carSigner && now > currentDriveRequiredEndTime)\n            || msg.sender == currentDriverAddress);\n\n    //To be called only if it is being rented for the day.\n    require (currentDriveStatus == DriveStatus.Driving);\n    require (currentDriverEntity == DriverEntity.DailyRental);\n\n    bool endedWithinPeriod = now <= currentDriveRequiredEndTime;\n\n    E_EndRentCarDaily(currentDriverAddress, now, endedWithinPeriod);\n\n    currentDriverAddress = address(0);\n    currentDriveStatus = DriveStatus.Idle;\n    currentDriverEntity = DriverEntity.None;\n    currentDriveStartTime = 0;\n    currentDriveRequiredEndTime = 0;\n\n    //Distribute earnings of the car rental\n    distributeEarnings();\n  }\n\n  /////////////////////////////////////\n  // Functions called by the car itself\n  /////////////////////////////////////\n\n  // carSigner will need eth to pay for gas stipends being used throughout the day.\n  // It should be able to get it from the car contract balance.\n  // This would be called by the car automatically each day, for example.\n  function triggerTransferEthForStipends() public onlyIfReady{\n    require(msg.sender == carSigner);\n\n    transferEthForStipends();\n  }\n\n  function transferEthForStipends() internal onlyIfReady {\n\n    uint amount = 1 * (10 ** 17);  // 0.1 eth per day should be enough\n    require (carSigner.balance < amount);\n    require(balanceToDistribute >= amount);\n\n    balanceToDistribute -= amount; // ADD SafeMath Library\n    carSigner.transfer(amount);\n    E_TransferEthForStipends(carSigner,amount, now);\n  }\n\n  //Distribute earnings to owners\n  function distributeEarnings() internal onlyIfReady {\n    //If the carSigner is running out of eth for transactions, transfer before distribution\n    transferEthForStipends();\n\n    //ETH should also be reserved for recharging fuel at a station. Not considered yet.\n    //refuelCar();\n\n    uint earningsPerOwner = balanceToDistribute / owners.length;\n    for (uint8 i=0;i<owners.length;i++){\n      ownersBalance[owners[i]] += earningsPerOwner; // ADD SafeMath Library\n      balanceToDistribute -= earningsPerOwner; // ADD SafeMath Library\n    }\n  }\n\n  /////////////////////////////////////\n  // Functions called by owners\n  /////////////////////////////////////\n\n  // Allow an owner to manually distribute earnings, in case there is a pending\n  // balance and the car has not ended a rental yet.\n  function triggerDistributeEarnings() public onlyIfReady{\n    require(balanceToDistribute >0);\n\n    //Make sure the one calling the function is actually an owner\n    bool isOwner = false;\n    for (uint8 i=0;i<owners.length;i++){\n      if (owners[i] == msg.sender){\n        isOwner = true;\n        break;\n      }\n    }\n    require (isOwner);\n\n    distributeEarnings();\n  }\n\n  //Each owner should call this function to withdraw the balance they have pending.\n  function withdrawEarnings() public onlyIfReady{\n\n    //Make sure the one calling the function is actually an owner\n    bool isOwner = false;\n    for (uint8 i=0;i<owners.length;i++){\n      if (owners[i] == msg.sender){\n        isOwner = true;\n        break;\n      }\n    }\n    require (isOwner);\n\n    uint balanceToWithdraw = ownersBalance[msg.sender];\n    require (balanceToWithdraw > 0);\n\n    ownersBalance[msg.sender] =0;\n    msg.sender.transfer(balanceToWithdraw);\n  }\n\n}\n",
  "sourcePath": "/Users/pabloruiz55/Documents/dapps/SmartCar/contracts/SmartCar.sol",
  "compiler": {
    "name": "solc",
    "version": "0.4.18+commit.9cf6e910.Emscripten.clang"
  },
  "schemaVersion": "1.0.1",
  "updatedAt": "2017-11-01T15:06:42.576Z"
}